{
	"main.sol": {
		"Exchange": {
			"abi": [
				{
					"inputs": [],
					"stateMutability": "nonpayable",
					"type": "constructor"
				},
				{
					"anonymous": false,
					"inputs": [
						{
							"indexed": true,
							"internalType": "address",
							"name": "_user",
							"type": "address"
						}
					],
					"name": "UserVoted",
					"type": "event"
				},
				{
					"inputs": [
						{
							"internalType": "address",
							"name": "",
							"type": "address"
						}
					],
					"name": "balances",
					"outputs": [
						{
							"internalType": "uint256",
							"name": "",
							"type": "uint256"
						}
					],
					"stateMutability": "view",
					"type": "function"
				},
				{
					"inputs": [],
					"name": "contractAddress",
					"outputs": [
						{
							"internalType": "address",
							"name": "",
							"type": "address"
						}
					],
					"stateMutability": "view",
					"type": "function"
				},
				{
					"inputs": [],
					"name": "getBalance",
					"outputs": [
						{
							"internalType": "uint256",
							"name": "",
							"type": "uint256"
						}
					],
					"stateMutability": "view",
					"type": "function"
				},
				{
					"inputs": [],
					"name": "getBlockInfo",
					"outputs": [
						{
							"internalType": "uint256",
							"name": "",
							"type": "uint256"
						},
						{
							"internalType": "uint256",
							"name": "",
							"type": "uint256"
						},
						{
							"internalType": "uint256",
							"name": "",
							"type": "uint256"
						}
					],
					"stateMutability": "view",
					"type": "function"
				},
				{
					"inputs": [
						{
							"internalType": "address",
							"name": "",
							"type": "address"
						}
					],
					"name": "hasVoted",
					"outputs": [
						{
							"internalType": "bool",
							"name": "",
							"type": "bool"
						}
					],
					"stateMutability": "view",
					"type": "function"
				},
				{
					"inputs": [
						{
							"internalType": "uint256",
							"name": "",
							"type": "uint256"
						}
					],
					"name": "userAddresses",
					"outputs": [
						{
							"internalType": "address",
							"name": "",
							"type": "address"
						}
					],
					"stateMutability": "view",
					"type": "function"
				},
				{
					"inputs": [],
					"name": "vote",
					"outputs": [],
					"stateMutability": "nonpayable",
					"type": "function"
				}
			],
			"devdoc": {
				"kind": "dev",
				"methods": {},
				"version": 1
			},
			"evm": {
				"assembly": "    /* \"main.sol\":57:814  contract Exchange {... */\n  mstore(0x40, 0x80)\n    /* \"main.sol\":312:374  constructor() {... */\n  callvalue\n  dup1\n  iszero\n  tag_1\n  jumpi\n  0x00\n  dup1\n  revert\ntag_1:\n  pop\n    /* \"main.sol\":362:366  this */\n  address\n    /* \"main.sol\":336:351  contractAddress */\n  0x00\n  dup1\n    /* \"main.sol\":336:367  contractAddress = address(this) */\n  0x0100\n  exp\n  dup2\n  sload\n  dup2\n  0xffffffffffffffffffffffffffffffffffffffff\n  mul\n  not\n  and\n  swap1\n  dup4\n  0xffffffffffffffffffffffffffffffffffffffff\n  and\n  mul\n  or\n  swap1\n  sstore\n  pop\n    /* \"main.sol\":57:814  contract Exchange {... */\n  dataSize(sub_0)\n  dup1\n  dataOffset(sub_0)\n  0x00\n  codecopy\n  0x00\n  return\nstop\n\nsub_0: assembly {\n        /* \"main.sol\":57:814  contract Exchange {... */\n      mstore(0x40, 0x80)\n      callvalue\n      dup1\n      iszero\n      tag_1\n      jumpi\n      0x00\n      dup1\n      revert\n    tag_1:\n      pop\n      jumpi(tag_2, lt(calldatasize, 0x04))\n      shr(0xe0, calldataload(0x00))\n      dup1\n      0x27e235e3\n      gt\n      tag_10\n      jumpi\n      dup1\n      0x27e235e3\n      eq\n      tag_6\n      jumpi\n      dup1\n      0x502c9bd5\n      eq\n      tag_7\n      jumpi\n      dup1\n      0x632a9a52\n      eq\n      tag_8\n      jumpi\n      dup1\n      0xf6b4dfb4\n      eq\n      tag_9\n      jumpi\n      jump(tag_2)\n    tag_10:\n      dup1\n      0x819439\n      eq\n      tag_3\n      jumpi\n      dup1\n      0x09eef43e\n      eq\n      tag_4\n      jumpi\n      dup1\n      0x12065fe0\n      eq\n      tag_5\n      jumpi\n    tag_2:\n      0x00\n      dup1\n      revert\n        /* \"main.sol\":632:810  function getBlockInfo() public view returns(uint, uint, uint) {... */\n    tag_3:\n      tag_11\n      tag_12\n      jump\t// in\n    tag_11:\n      mload(0x40)\n      tag_13\n      swap4\n      swap3\n      swap2\n      swap1\n      tag_14\n      jump\t// in\n    tag_13:\n      mload(0x40)\n      dup1\n      swap2\n      sub\n      swap1\n      return\n        /* \"main.sol\":154:195  mapping (address => bool) public hasVoted */\n    tag_4:\n      tag_15\n      0x04\n      dup1\n      calldatasize\n      sub\n      dup2\n      add\n      swap1\n      tag_16\n      swap2\n      swap1\n      tag_17\n      jump\t// in\n    tag_16:\n      tag_18\n      jump\t// in\n    tag_15:\n      mload(0x40)\n      tag_19\n      swap2\n      swap1\n      tag_20\n      jump\t// in\n    tag_19:\n      mload(0x40)\n      dup1\n      swap2\n      sub\n      swap1\n      return\n        /* \"main.sol\":531:626  function getBalance() public view returns(uint256) {... */\n    tag_5:\n      tag_21\n      tag_22\n      jump\t// in\n    tag_21:\n      mload(0x40)\n      tag_23\n      swap2\n      swap1\n      tag_24\n      jump\t// in\n    tag_23:\n      mload(0x40)\n      dup1\n      swap2\n      sub\n      swap1\n      return\n        /* \"main.sol\":201:245  mapping (address => uint256) public balances */\n    tag_6:\n      tag_25\n      0x04\n      dup1\n      calldatasize\n      sub\n      dup2\n      add\n      swap1\n      tag_26\n      swap2\n      swap1\n      tag_17\n      jump\t// in\n    tag_26:\n      tag_27\n      jump\t// in\n    tag_25:\n      mload(0x40)\n      tag_28\n      swap2\n      swap1\n      tag_24\n      jump\t// in\n    tag_28:\n      mload(0x40)\n      dup1\n      swap2\n      sub\n      swap1\n      return\n        /* \"main.sol\":118:148  address[] public userAddresses */\n    tag_7:\n      tag_29\n      0x04\n      dup1\n      calldatasize\n      sub\n      dup2\n      add\n      swap1\n      tag_30\n      swap2\n      swap1\n      tag_31\n      jump\t// in\n    tag_30:\n      tag_32\n      jump\t// in\n    tag_29:\n      mload(0x40)\n      tag_33\n      swap2\n      swap1\n      tag_34\n      jump\t// in\n    tag_33:\n      mload(0x40)\n      dup1\n      swap2\n      sub\n      swap1\n      return\n        /* \"main.sol\":380:525  function vote() public {... */\n    tag_8:\n      tag_35\n      tag_36\n      jump\t// in\n    tag_35:\n      stop\n        /* \"main.sol\":81:111  address public contractAddress */\n    tag_9:\n      tag_37\n      tag_38\n      jump\t// in\n    tag_37:\n      mload(0x40)\n      tag_39\n      swap2\n      swap1\n      tag_34\n      jump\t// in\n    tag_39:\n      mload(0x40)\n      dup1\n      swap2\n      sub\n      swap1\n      return\n        /* \"main.sol\":632:810  function getBlockInfo() public view returns(uint, uint, uint) {... */\n    tag_12:\n        /* \"main.sol\":676:680  uint */\n      0x00\n        /* \"main.sol\":682:686  uint */\n      dup1\n        /* \"main.sol\":688:692  uint */\n      0x00\n        /* \"main.sol\":725:737  block.number */\n      number\n        /* \"main.sol\":751:766  block.timestamp */\n      timestamp\n        /* \"main.sol\":780:793  block.chainid */\n      chainid\n        /* \"main.sol\":704:803  return (... */\n      swap3\n      pop\n      swap3\n      pop\n      swap3\n      pop\n        /* \"main.sol\":632:810  function getBlockInfo() public view returns(uint, uint, uint) {... */\n      swap1\n      swap2\n      swap3\n      jump\t// out\n        /* \"main.sol\":154:195  mapping (address => bool) public hasVoted */\n    tag_18:\n      mstore(0x20, 0x02)\n      dup1\n      0x00\n      mstore\n      keccak256(0x00, 0x40)\n      0x00\n      swap2\n      pop\n      sload\n      swap1\n      0x0100\n      exp\n      swap1\n      div\n      0xff\n      and\n      dup2\n      jump\t// out\n        /* \"main.sol\":531:626  function getBalance() public view returns(uint256) {... */\n    tag_22:\n        /* \"main.sol\":573:580  uint256 */\n      0x00\n        /* \"main.sol\":599:607  balances */\n      0x03\n        /* \"main.sol\":599:619  balances[msg.sender] */\n      0x00\n        /* \"main.sol\":608:618  msg.sender */\n      caller\n        /* \"main.sol\":599:619  balances[msg.sender] */\n      0xffffffffffffffffffffffffffffffffffffffff\n      and\n      0xffffffffffffffffffffffffffffffffffffffff\n      and\n      dup2\n      mstore\n      0x20\n      add\n      swap1\n      dup2\n      mstore\n      0x20\n      add\n      0x00\n      keccak256\n      sload\n        /* \"main.sol\":592:619  return balances[msg.sender] */\n      swap1\n      pop\n        /* \"main.sol\":531:626  function getBalance() public view returns(uint256) {... */\n      swap1\n      jump\t// out\n        /* \"main.sol\":201:245  mapping (address => uint256) public balances */\n    tag_27:\n      mstore(0x20, 0x03)\n      dup1\n      0x00\n      mstore\n      keccak256(0x00, 0x40)\n      0x00\n      swap2\n      pop\n      swap1\n      pop\n      sload\n      dup2\n      jump\t// out\n        /* \"main.sol\":118:148  address[] public userAddresses */\n    tag_32:\n      0x01\n      dup2\n      dup2\n      sload\n      dup2\n      lt\n      tag_42\n      jumpi\n      0x00\n      dup1\n      revert\n    tag_42:\n      swap1\n      0x00\n      mstore\n      keccak256(0x00, 0x20)\n      add\n      0x00\n      swap2\n      pop\n      sload\n      swap1\n      0x0100\n      exp\n      swap1\n      div\n      0xffffffffffffffffffffffffffffffffffffffff\n      and\n      dup2\n      jump\t// out\n        /* \"main.sol\":380:525  function vote() public {... */\n    tag_36:\n        /* \"main.sol\":436:440  true */\n      0x01\n        /* \"main.sol\":413:421  hasVoted */\n      0x02\n        /* \"main.sol\":413:433  hasVoted[msg.sender] */\n      0x00\n        /* \"main.sol\":422:432  msg.sender */\n      caller\n        /* \"main.sol\":413:433  hasVoted[msg.sender] */\n      0xffffffffffffffffffffffffffffffffffffffff\n      and\n      0xffffffffffffffffffffffffffffffffffffffff\n      and\n      dup2\n      mstore\n      0x20\n      add\n      swap1\n      dup2\n      mstore\n      0x20\n      add\n      0x00\n      keccak256\n      0x00\n        /* \"main.sol\":413:440  hasVoted[msg.sender] = true */\n      0x0100\n      exp\n      dup2\n      sload\n      dup2\n      0xff\n      mul\n      not\n      and\n      swap1\n      dup4\n      iszero\n      iszero\n      mul\n      or\n      swap1\n      sstore\n      pop\n        /* \"main.sol\":474:481  100 wei */\n      0x64\n        /* \"main.sol\":450:458  balances */\n      0x03\n        /* \"main.sol\":450:470  balances[msg.sender] */\n      0x00\n        /* \"main.sol\":459:469  msg.sender */\n      caller\n        /* \"main.sol\":450:470  balances[msg.sender] */\n      0xffffffffffffffffffffffffffffffffffffffff\n      and\n      0xffffffffffffffffffffffffffffffffffffffff\n      and\n      dup2\n      mstore\n      0x20\n      add\n      swap1\n      dup2\n      mstore\n      0x20\n      add\n      0x00\n      keccak256\n      0x00\n        /* \"main.sol\":450:481  balances[msg.sender] += 100 wei */\n      dup3\n      dup3\n      sload\n      tag_45\n      swap2\n      swap1\n      tag_46\n      jump\t// in\n    tag_45:\n      swap3\n      pop\n      pop\n      dup2\n      swap1\n      sstore\n      pop\n        /* \"main.sol\":507:517  msg.sender */\n      caller\n        /* \"main.sol\":497:518  UserVoted(msg.sender) */\n      0xffffffffffffffffffffffffffffffffffffffff\n      and\n      0x24e53c9b6f7a01c723fa01359e44b47e62ab501027dbb092d38e3669d6b01d08\n      mload(0x40)\n      mload(0x40)\n      dup1\n      swap2\n      sub\n      swap1\n      log2\n        /* \"main.sol\":380:525  function vote() public {... */\n      jump\t// out\n        /* \"main.sol\":81:111  address public contractAddress */\n    tag_38:\n      0x00\n      dup1\n      sload\n      swap1\n      0x0100\n      exp\n      swap1\n      div\n      0xffffffffffffffffffffffffffffffffffffffff\n      and\n      dup2\n      jump\t// out\n        /* \"#utility.yul\":7:84   */\n    tag_47:\n        /* \"#utility.yul\":44:51   */\n      0x00\n        /* \"#utility.yul\":73:78   */\n      dup2\n        /* \"#utility.yul\":62:78   */\n      swap1\n      pop\n        /* \"#utility.yul\":7:84   */\n      swap2\n      swap1\n      pop\n      jump\t// out\n        /* \"#utility.yul\":90:208   */\n    tag_48:\n        /* \"#utility.yul\":177:201   */\n      tag_65\n        /* \"#utility.yul\":195:200   */\n      dup2\n        /* \"#utility.yul\":177:201   */\n      tag_47\n      jump\t// in\n    tag_65:\n        /* \"#utility.yul\":172:175   */\n      dup3\n        /* \"#utility.yul\":165:202   */\n      mstore\n        /* \"#utility.yul\":90:208   */\n      pop\n      pop\n      jump\t// out\n        /* \"#utility.yul\":214:656   */\n    tag_14:\n        /* \"#utility.yul\":363:367   */\n      0x00\n        /* \"#utility.yul\":401:403   */\n      0x60\n        /* \"#utility.yul\":390:399   */\n      dup3\n        /* \"#utility.yul\":386:404   */\n      add\n        /* \"#utility.yul\":378:404   */\n      swap1\n      pop\n        /* \"#utility.yul\":414:485   */\n      tag_67\n        /* \"#utility.yul\":482:483   */\n      0x00\n        /* \"#utility.yul\":471:480   */\n      dup4\n        /* \"#utility.yul\":467:484   */\n      add\n        /* \"#utility.yul\":458:464   */\n      dup7\n        /* \"#utility.yul\":414:485   */\n      tag_48\n      jump\t// in\n    tag_67:\n        /* \"#utility.yul\":495:567   */\n      tag_68\n        /* \"#utility.yul\":563:565   */\n      0x20\n        /* \"#utility.yul\":552:561   */\n      dup4\n        /* \"#utility.yul\":548:566   */\n      add\n        /* \"#utility.yul\":539:545   */\n      dup6\n        /* \"#utility.yul\":495:567   */\n      tag_48\n      jump\t// in\n    tag_68:\n        /* \"#utility.yul\":577:649   */\n      tag_69\n        /* \"#utility.yul\":645:647   */\n      0x40\n        /* \"#utility.yul\":634:643   */\n      dup4\n        /* \"#utility.yul\":630:648   */\n      add\n        /* \"#utility.yul\":621:627   */\n      dup5\n        /* \"#utility.yul\":577:649   */\n      tag_48\n      jump\t// in\n    tag_69:\n        /* \"#utility.yul\":214:656   */\n      swap5\n      swap4\n      pop\n      pop\n      pop\n      pop\n      jump\t// out\n        /* \"#utility.yul\":743:860   */\n    tag_50:\n        /* \"#utility.yul\":852:853   */\n      0x00\n        /* \"#utility.yul\":849:850   */\n      dup1\n        /* \"#utility.yul\":842:854   */\n      revert\n        /* \"#utility.yul\":989:1115   */\n    tag_52:\n        /* \"#utility.yul\":1026:1033   */\n      0x00\n        /* \"#utility.yul\":1066:1108   */\n      0xffffffffffffffffffffffffffffffffffffffff\n        /* \"#utility.yul\":1059:1064   */\n      dup3\n        /* \"#utility.yul\":1055:1109   */\n      and\n        /* \"#utility.yul\":1044:1109   */\n      swap1\n      pop\n        /* \"#utility.yul\":989:1115   */\n      swap2\n      swap1\n      pop\n      jump\t// out\n        /* \"#utility.yul\":1121:1217   */\n    tag_53:\n        /* \"#utility.yul\":1158:1165   */\n      0x00\n        /* \"#utility.yul\":1187:1211   */\n      tag_75\n        /* \"#utility.yul\":1205:1210   */\n      dup3\n        /* \"#utility.yul\":1187:1211   */\n      tag_52\n      jump\t// in\n    tag_75:\n        /* \"#utility.yul\":1176:1211   */\n      swap1\n      pop\n        /* \"#utility.yul\":1121:1217   */\n      swap2\n      swap1\n      pop\n      jump\t// out\n        /* \"#utility.yul\":1223:1345   */\n    tag_54:\n        /* \"#utility.yul\":1296:1320   */\n      tag_77\n        /* \"#utility.yul\":1314:1319   */\n      dup2\n        /* \"#utility.yul\":1296:1320   */\n      tag_53\n      jump\t// in\n    tag_77:\n        /* \"#utility.yul\":1289:1294   */\n      dup2\n        /* \"#utility.yul\":1286:1321   */\n      eq\n        /* \"#utility.yul\":1276:1339   */\n      tag_78\n      jumpi\n        /* \"#utility.yul\":1335:1336   */\n      0x00\n        /* \"#utility.yul\":1332:1333   */\n      dup1\n        /* \"#utility.yul\":1325:1337   */\n      revert\n        /* \"#utility.yul\":1276:1339   */\n    tag_78:\n        /* \"#utility.yul\":1223:1345   */\n      pop\n      jump\t// out\n        /* \"#utility.yul\":1351:1490   */\n    tag_55:\n        /* \"#utility.yul\":1397:1402   */\n      0x00\n        /* \"#utility.yul\":1435:1441   */\n      dup2\n        /* \"#utility.yul\":1422:1442   */\n      calldataload\n        /* \"#utility.yul\":1413:1442   */\n      swap1\n      pop\n        /* \"#utility.yul\":1451:1484   */\n      tag_80\n        /* \"#utility.yul\":1478:1483   */\n      dup2\n        /* \"#utility.yul\":1451:1484   */\n      tag_54\n      jump\t// in\n    tag_80:\n        /* \"#utility.yul\":1351:1490   */\n      swap3\n      swap2\n      pop\n      pop\n      jump\t// out\n        /* \"#utility.yul\":1496:1825   */\n    tag_17:\n        /* \"#utility.yul\":1555:1561   */\n      0x00\n        /* \"#utility.yul\":1604:1606   */\n      0x20\n        /* \"#utility.yul\":1592:1601   */\n      dup3\n        /* \"#utility.yul\":1583:1590   */\n      dup5\n        /* \"#utility.yul\":1579:1602   */\n      sub\n        /* \"#utility.yul\":1575:1607   */\n      slt\n        /* \"#utility.yul\":1572:1691   */\n      iszero\n      tag_82\n      jumpi\n        /* \"#utility.yul\":1610:1689   */\n      tag_83\n      tag_50\n      jump\t// in\n    tag_83:\n        /* \"#utility.yul\":1572:1691   */\n    tag_82:\n        /* \"#utility.yul\":1730:1731   */\n      0x00\n        /* \"#utility.yul\":1755:1808   */\n      tag_84\n        /* \"#utility.yul\":1800:1807   */\n      dup5\n        /* \"#utility.yul\":1791:1797   */\n      dup3\n        /* \"#utility.yul\":1780:1789   */\n      dup6\n        /* \"#utility.yul\":1776:1798   */\n      add\n        /* \"#utility.yul\":1755:1808   */\n      tag_55\n      jump\t// in\n    tag_84:\n        /* \"#utility.yul\":1745:1808   */\n      swap2\n      pop\n        /* \"#utility.yul\":1701:1818   */\n      pop\n        /* \"#utility.yul\":1496:1825   */\n      swap3\n      swap2\n      pop\n      pop\n      jump\t// out\n        /* \"#utility.yul\":1831:1921   */\n    tag_56:\n        /* \"#utility.yul\":1865:1872   */\n      0x00\n        /* \"#utility.yul\":1908:1913   */\n      dup2\n        /* \"#utility.yul\":1901:1914   */\n      iszero\n        /* \"#utility.yul\":1894:1915   */\n      iszero\n        /* \"#utility.yul\":1883:1915   */\n      swap1\n      pop\n        /* \"#utility.yul\":1831:1921   */\n      swap2\n      swap1\n      pop\n      jump\t// out\n        /* \"#utility.yul\":1927:2036   */\n    tag_57:\n        /* \"#utility.yul\":2008:2029   */\n      tag_87\n        /* \"#utility.yul\":2023:2028   */\n      dup2\n        /* \"#utility.yul\":2008:2029   */\n      tag_56\n      jump\t// in\n    tag_87:\n        /* \"#utility.yul\":2003:2006   */\n      dup3\n        /* \"#utility.yul\":1996:2030   */\n      mstore\n        /* \"#utility.yul\":1927:2036   */\n      pop\n      pop\n      jump\t// out\n        /* \"#utility.yul\":2042:2252   */\n    tag_20:\n        /* \"#utility.yul\":2129:2133   */\n      0x00\n        /* \"#utility.yul\":2167:2169   */\n      0x20\n        /* \"#utility.yul\":2156:2165   */\n      dup3\n        /* \"#utility.yul\":2152:2170   */\n      add\n        /* \"#utility.yul\":2144:2170   */\n      swap1\n      pop\n        /* \"#utility.yul\":2180:2245   */\n      tag_89\n        /* \"#utility.yul\":2242:2243   */\n      0x00\n        /* \"#utility.yul\":2231:2240   */\n      dup4\n        /* \"#utility.yul\":2227:2244   */\n      add\n        /* \"#utility.yul\":2218:2224   */\n      dup5\n        /* \"#utility.yul\":2180:2245   */\n      tag_57\n      jump\t// in\n    tag_89:\n        /* \"#utility.yul\":2042:2252   */\n      swap3\n      swap2\n      pop\n      pop\n      jump\t// out\n        /* \"#utility.yul\":2258:2480   */\n    tag_24:\n        /* \"#utility.yul\":2351:2355   */\n      0x00\n        /* \"#utility.yul\":2389:2391   */\n      0x20\n        /* \"#utility.yul\":2378:2387   */\n      dup3\n        /* \"#utility.yul\":2374:2392   */\n      add\n        /* \"#utility.yul\":2366:2392   */\n      swap1\n      pop\n        /* \"#utility.yul\":2402:2473   */\n      tag_91\n        /* \"#utility.yul\":2470:2471   */\n      0x00\n        /* \"#utility.yul\":2459:2468   */\n      dup4\n        /* \"#utility.yul\":2455:2472   */\n      add\n        /* \"#utility.yul\":2446:2452   */\n      dup5\n        /* \"#utility.yul\":2402:2473   */\n      tag_48\n      jump\t// in\n    tag_91:\n        /* \"#utility.yul\":2258:2480   */\n      swap3\n      swap2\n      pop\n      pop\n      jump\t// out\n        /* \"#utility.yul\":2486:2608   */\n    tag_58:\n        /* \"#utility.yul\":2559:2583   */\n      tag_93\n        /* \"#utility.yul\":2577:2582   */\n      dup2\n        /* \"#utility.yul\":2559:2583   */\n      tag_47\n      jump\t// in\n    tag_93:\n        /* \"#utility.yul\":2552:2557   */\n      dup2\n        /* \"#utility.yul\":2549:2584   */\n      eq\n        /* \"#utility.yul\":2539:2602   */\n      tag_94\n      jumpi\n        /* \"#utility.yul\":2598:2599   */\n      0x00\n        /* \"#utility.yul\":2595:2596   */\n      dup1\n        /* \"#utility.yul\":2588:2600   */\n      revert\n        /* \"#utility.yul\":2539:2602   */\n    tag_94:\n        /* \"#utility.yul\":2486:2608   */\n      pop\n      jump\t// out\n        /* \"#utility.yul\":2614:2753   */\n    tag_59:\n        /* \"#utility.yul\":2660:2665   */\n      0x00\n        /* \"#utility.yul\":2698:2704   */\n      dup2\n        /* \"#utility.yul\":2685:2705   */\n      calldataload\n        /* \"#utility.yul\":2676:2705   */\n      swap1\n      pop\n        /* \"#utility.yul\":2714:2747   */\n      tag_96\n        /* \"#utility.yul\":2741:2746   */\n      dup2\n        /* \"#utility.yul\":2714:2747   */\n      tag_58\n      jump\t// in\n    tag_96:\n        /* \"#utility.yul\":2614:2753   */\n      swap3\n      swap2\n      pop\n      pop\n      jump\t// out\n        /* \"#utility.yul\":2759:3088   */\n    tag_31:\n        /* \"#utility.yul\":2818:2824   */\n      0x00\n        /* \"#utility.yul\":2867:2869   */\n      0x20\n        /* \"#utility.yul\":2855:2864   */\n      dup3\n        /* \"#utility.yul\":2846:2853   */\n      dup5\n        /* \"#utility.yul\":2842:2865   */\n      sub\n        /* \"#utility.yul\":2838:2870   */\n      slt\n        /* \"#utility.yul\":2835:2954   */\n      iszero\n      tag_98\n      jumpi\n        /* \"#utility.yul\":2873:2952   */\n      tag_99\n      tag_50\n      jump\t// in\n    tag_99:\n        /* \"#utility.yul\":2835:2954   */\n    tag_98:\n        /* \"#utility.yul\":2993:2994   */\n      0x00\n        /* \"#utility.yul\":3018:3071   */\n      tag_100\n        /* \"#utility.yul\":3063:3070   */\n      dup5\n        /* \"#utility.yul\":3054:3060   */\n      dup3\n        /* \"#utility.yul\":3043:3052   */\n      dup6\n        /* \"#utility.yul\":3039:3061   */\n      add\n        /* \"#utility.yul\":3018:3071   */\n      tag_59\n      jump\t// in\n    tag_100:\n        /* \"#utility.yul\":3008:3071   */\n      swap2\n      pop\n        /* \"#utility.yul\":2964:3081   */\n      pop\n        /* \"#utility.yul\":2759:3088   */\n      swap3\n      swap2\n      pop\n      pop\n      jump\t// out\n        /* \"#utility.yul\":3094:3212   */\n    tag_60:\n        /* \"#utility.yul\":3181:3205   */\n      tag_102\n        /* \"#utility.yul\":3199:3204   */\n      dup2\n        /* \"#utility.yul\":3181:3205   */\n      tag_53\n      jump\t// in\n    tag_102:\n        /* \"#utility.yul\":3176:3179   */\n      dup3\n        /* \"#utility.yul\":3169:3206   */\n      mstore\n        /* \"#utility.yul\":3094:3212   */\n      pop\n      pop\n      jump\t// out\n        /* \"#utility.yul\":3218:3440   */\n    tag_34:\n        /* \"#utility.yul\":3311:3315   */\n      0x00\n        /* \"#utility.yul\":3349:3351   */\n      0x20\n        /* \"#utility.yul\":3338:3347   */\n      dup3\n        /* \"#utility.yul\":3334:3352   */\n      add\n        /* \"#utility.yul\":3326:3352   */\n      swap1\n      pop\n        /* \"#utility.yul\":3362:3433   */\n      tag_104\n        /* \"#utility.yul\":3430:3431   */\n      0x00\n        /* \"#utility.yul\":3419:3428   */\n      dup4\n        /* \"#utility.yul\":3415:3432   */\n      add\n        /* \"#utility.yul\":3406:3412   */\n      dup5\n        /* \"#utility.yul\":3362:3433   */\n      tag_60\n      jump\t// in\n    tag_104:\n        /* \"#utility.yul\":3218:3440   */\n      swap3\n      swap2\n      pop\n      pop\n      jump\t// out\n        /* \"#utility.yul\":3446:3626   */\n    tag_61:\n        /* \"#utility.yul\":3494:3571   */\n      0x4e487b7100000000000000000000000000000000000000000000000000000000\n        /* \"#utility.yul\":3491:3492   */\n      0x00\n        /* \"#utility.yul\":3484:3572   */\n      mstore\n        /* \"#utility.yul\":3591:3595   */\n      0x11\n        /* \"#utility.yul\":3588:3589   */\n      0x04\n        /* \"#utility.yul\":3581:3596   */\n      mstore\n        /* \"#utility.yul\":3615:3619   */\n      0x24\n        /* \"#utility.yul\":3612:3613   */\n      0x00\n        /* \"#utility.yul\":3605:3620   */\n      revert\n        /* \"#utility.yul\":3632:3823   */\n    tag_46:\n        /* \"#utility.yul\":3672:3675   */\n      0x00\n        /* \"#utility.yul\":3691:3711   */\n      tag_107\n        /* \"#utility.yul\":3709:3710   */\n      dup3\n        /* \"#utility.yul\":3691:3711   */\n      tag_47\n      jump\t// in\n    tag_107:\n        /* \"#utility.yul\":3686:3711   */\n      swap2\n      pop\n        /* \"#utility.yul\":3725:3745   */\n      tag_108\n        /* \"#utility.yul\":3743:3744   */\n      dup4\n        /* \"#utility.yul\":3725:3745   */\n      tag_47\n      jump\t// in\n    tag_108:\n        /* \"#utility.yul\":3720:3745   */\n      swap3\n      pop\n        /* \"#utility.yul\":3768:3769   */\n      dup3\n        /* \"#utility.yul\":3765:3766   */\n      dup3\n        /* \"#utility.yul\":3761:3770   */\n      add\n        /* \"#utility.yul\":3754:3770   */\n      swap1\n      pop\n        /* \"#utility.yul\":3789:3792   */\n      dup1\n        /* \"#utility.yul\":3786:3787   */\n      dup3\n        /* \"#utility.yul\":3783:3793   */\n      gt\n        /* \"#utility.yul\":3780:3816   */\n      iszero\n      tag_109\n      jumpi\n        /* \"#utility.yul\":3796:3814   */\n      tag_110\n      tag_61\n      jump\t// in\n    tag_110:\n        /* \"#utility.yul\":3780:3816   */\n    tag_109:\n        /* \"#utility.yul\":3632:3823   */\n      swap3\n      swap2\n      pop\n      pop\n      jump\t// out\n\n    auxdata: 0xa264697066735822122005e99f204c8aea24d0283afe286af77de2f3e4f960e9a9b1e1b4933cc764e02864736f6c63430008120033\n}\n",
				"bytecode": {
					"linkReferences": {},
					"object": "608060405234801561001057600080fd5b50306000806101000a81548173ffffffffffffffffffffffffffffffffffffffff021916908373ffffffffffffffffffffffffffffffffffffffff1602179055506105ad806100606000396000f3fe608060405234801561001057600080fd5b506004361061007c5760003560e01c806327e235e31161005b57806327e235e3146100ef578063502c9bd51461011f578063632a9a521461014f578063f6b4dfb4146101595761007c565b80628194391461008157806309eef43e146100a157806312065fe0146100d1575b600080fd5b610089610177565b60405161009893929190610379565b60405180910390f35b6100bb60048036038101906100b69190610413565b61018a565b6040516100c8919061045b565b60405180910390f35b6100d96101aa565b6040516100e69190610476565b60405180910390f35b61010960048036038101906101049190610413565b6101f1565b6040516101169190610476565b60405180910390f35b610139600480360381019061013491906104bd565b610209565b60405161014691906104f9565b60405180910390f35b610157610248565b005b61016161033c565b60405161016e91906104f9565b60405180910390f35b6000806000434246925092509250909192565b60026020528060005260406000206000915054906101000a900460ff1681565b6000600360003373ffffffffffffffffffffffffffffffffffffffff1673ffffffffffffffffffffffffffffffffffffffff16815260200190815260200160002054905090565b60036020528060005260406000206000915090505481565b6001818154811061021957600080fd5b906000526020600020016000915054906101000a900473ffffffffffffffffffffffffffffffffffffffff1681565b6001600260003373ffffffffffffffffffffffffffffffffffffffff1673ffffffffffffffffffffffffffffffffffffffff16815260200190815260200160002060006101000a81548160ff0219169083151502179055506064600360003373ffffffffffffffffffffffffffffffffffffffff1673ffffffffffffffffffffffffffffffffffffffff16815260200190815260200160002060008282546102f09190610543565b925050819055503373ffffffffffffffffffffffffffffffffffffffff167f24e53c9b6f7a01c723fa01359e44b47e62ab501027dbb092d38e3669d6b01d0860405160405180910390a2565b60008054906101000a900473ffffffffffffffffffffffffffffffffffffffff1681565b6000819050919050565b61037381610360565b82525050565b600060608201905061038e600083018661036a565b61039b602083018561036a565b6103a8604083018461036a565b949350505050565b600080fd5b600073ffffffffffffffffffffffffffffffffffffffff82169050919050565b60006103e0826103b5565b9050919050565b6103f0816103d5565b81146103fb57600080fd5b50565b60008135905061040d816103e7565b92915050565b600060208284031215610429576104286103b0565b5b6000610437848285016103fe565b91505092915050565b60008115159050919050565b61045581610440565b82525050565b6000602082019050610470600083018461044c565b92915050565b600060208201905061048b600083018461036a565b92915050565b61049a81610360565b81146104a557600080fd5b50565b6000813590506104b781610491565b92915050565b6000602082840312156104d3576104d26103b0565b5b60006104e1848285016104a8565b91505092915050565b6104f3816103d5565b82525050565b600060208201905061050e60008301846104ea565b92915050565b7f4e487b7100000000000000000000000000000000000000000000000000000000600052601160045260246000fd5b600061054e82610360565b915061055983610360565b925082820190508082111561057157610570610514565b5b9291505056fea264697066735822122005e99f204c8aea24d0283afe286af77de2f3e4f960e9a9b1e1b4933cc764e02864736f6c63430008120033",
					"opcodes": "PUSH1 0x80 PUSH1 0x40 MSTORE CALLVALUE DUP1 ISZERO PUSH2 0x10 JUMPI PUSH1 0x0 DUP1 REVERT JUMPDEST POP ADDRESS PUSH1 0x0 DUP1 PUSH2 0x100 EXP DUP2 SLOAD DUP2 PUSH20 0xFFFFFFFFFFFFFFFFFFFFFFFFFFFFFFFFFFFFFFFF MUL NOT AND SWAP1 DUP4 PUSH20 0xFFFFFFFFFFFFFFFFFFFFFFFFFFFFFFFFFFFFFFFF AND MUL OR SWAP1 SSTORE POP PUSH2 0x5AD DUP1 PUSH2 0x60 PUSH1 0x0 CODECOPY PUSH1 0x0 RETURN INVALID PUSH1 0x80 PUSH1 0x40 MSTORE CALLVALUE DUP1 ISZERO PUSH2 0x10 JUMPI PUSH1 0x0 DUP1 REVERT JUMPDEST POP PUSH1 0x4 CALLDATASIZE LT PUSH2 0x7C JUMPI PUSH1 0x0 CALLDATALOAD PUSH1 0xE0 SHR DUP1 PUSH4 0x27E235E3 GT PUSH2 0x5B JUMPI DUP1 PUSH4 0x27E235E3 EQ PUSH2 0xEF JUMPI DUP1 PUSH4 0x502C9BD5 EQ PUSH2 0x11F JUMPI DUP1 PUSH4 0x632A9A52 EQ PUSH2 0x14F JUMPI DUP1 PUSH4 0xF6B4DFB4 EQ PUSH2 0x159 JUMPI PUSH2 0x7C JUMP JUMPDEST DUP1 PUSH3 0x819439 EQ PUSH2 0x81 JUMPI DUP1 PUSH4 0x9EEF43E EQ PUSH2 0xA1 JUMPI DUP1 PUSH4 0x12065FE0 EQ PUSH2 0xD1 JUMPI JUMPDEST PUSH1 0x0 DUP1 REVERT JUMPDEST PUSH2 0x89 PUSH2 0x177 JUMP JUMPDEST PUSH1 0x40 MLOAD PUSH2 0x98 SWAP4 SWAP3 SWAP2 SWAP1 PUSH2 0x379 JUMP JUMPDEST PUSH1 0x40 MLOAD DUP1 SWAP2 SUB SWAP1 RETURN JUMPDEST PUSH2 0xBB PUSH1 0x4 DUP1 CALLDATASIZE SUB DUP2 ADD SWAP1 PUSH2 0xB6 SWAP2 SWAP1 PUSH2 0x413 JUMP JUMPDEST PUSH2 0x18A JUMP JUMPDEST PUSH1 0x40 MLOAD PUSH2 0xC8 SWAP2 SWAP1 PUSH2 0x45B JUMP JUMPDEST PUSH1 0x40 MLOAD DUP1 SWAP2 SUB SWAP1 RETURN JUMPDEST PUSH2 0xD9 PUSH2 0x1AA JUMP JUMPDEST PUSH1 0x40 MLOAD PUSH2 0xE6 SWAP2 SWAP1 PUSH2 0x476 JUMP JUMPDEST PUSH1 0x40 MLOAD DUP1 SWAP2 SUB SWAP1 RETURN JUMPDEST PUSH2 0x109 PUSH1 0x4 DUP1 CALLDATASIZE SUB DUP2 ADD SWAP1 PUSH2 0x104 SWAP2 SWAP1 PUSH2 0x413 JUMP JUMPDEST PUSH2 0x1F1 JUMP JUMPDEST PUSH1 0x40 MLOAD PUSH2 0x116 SWAP2 SWAP1 PUSH2 0x476 JUMP JUMPDEST PUSH1 0x40 MLOAD DUP1 SWAP2 SUB SWAP1 RETURN JUMPDEST PUSH2 0x139 PUSH1 0x4 DUP1 CALLDATASIZE SUB DUP2 ADD SWAP1 PUSH2 0x134 SWAP2 SWAP1 PUSH2 0x4BD JUMP JUMPDEST PUSH2 0x209 JUMP JUMPDEST PUSH1 0x40 MLOAD PUSH2 0x146 SWAP2 SWAP1 PUSH2 0x4F9 JUMP JUMPDEST PUSH1 0x40 MLOAD DUP1 SWAP2 SUB SWAP1 RETURN JUMPDEST PUSH2 0x157 PUSH2 0x248 JUMP JUMPDEST STOP JUMPDEST PUSH2 0x161 PUSH2 0x33C JUMP JUMPDEST PUSH1 0x40 MLOAD PUSH2 0x16E SWAP2 SWAP1 PUSH2 0x4F9 JUMP JUMPDEST PUSH1 0x40 MLOAD DUP1 SWAP2 SUB SWAP1 RETURN JUMPDEST PUSH1 0x0 DUP1 PUSH1 0x0 NUMBER TIMESTAMP CHAINID SWAP3 POP SWAP3 POP SWAP3 POP SWAP1 SWAP2 SWAP3 JUMP JUMPDEST PUSH1 0x2 PUSH1 0x20 MSTORE DUP1 PUSH1 0x0 MSTORE PUSH1 0x40 PUSH1 0x0 KECCAK256 PUSH1 0x0 SWAP2 POP SLOAD SWAP1 PUSH2 0x100 EXP SWAP1 DIV PUSH1 0xFF AND DUP2 JUMP JUMPDEST PUSH1 0x0 PUSH1 0x3 PUSH1 0x0 CALLER PUSH20 0xFFFFFFFFFFFFFFFFFFFFFFFFFFFFFFFFFFFFFFFF AND PUSH20 0xFFFFFFFFFFFFFFFFFFFFFFFFFFFFFFFFFFFFFFFF AND DUP2 MSTORE PUSH1 0x20 ADD SWAP1 DUP2 MSTORE PUSH1 0x20 ADD PUSH1 0x0 KECCAK256 SLOAD SWAP1 POP SWAP1 JUMP JUMPDEST PUSH1 0x3 PUSH1 0x20 MSTORE DUP1 PUSH1 0x0 MSTORE PUSH1 0x40 PUSH1 0x0 KECCAK256 PUSH1 0x0 SWAP2 POP SWAP1 POP SLOAD DUP2 JUMP JUMPDEST PUSH1 0x1 DUP2 DUP2 SLOAD DUP2 LT PUSH2 0x219 JUMPI PUSH1 0x0 DUP1 REVERT JUMPDEST SWAP1 PUSH1 0x0 MSTORE PUSH1 0x20 PUSH1 0x0 KECCAK256 ADD PUSH1 0x0 SWAP2 POP SLOAD SWAP1 PUSH2 0x100 EXP SWAP1 DIV PUSH20 0xFFFFFFFFFFFFFFFFFFFFFFFFFFFFFFFFFFFFFFFF AND DUP2 JUMP JUMPDEST PUSH1 0x1 PUSH1 0x2 PUSH1 0x0 CALLER PUSH20 0xFFFFFFFFFFFFFFFFFFFFFFFFFFFFFFFFFFFFFFFF AND PUSH20 0xFFFFFFFFFFFFFFFFFFFFFFFFFFFFFFFFFFFFFFFF AND DUP2 MSTORE PUSH1 0x20 ADD SWAP1 DUP2 MSTORE PUSH1 0x20 ADD PUSH1 0x0 KECCAK256 PUSH1 0x0 PUSH2 0x100 EXP DUP2 SLOAD DUP2 PUSH1 0xFF MUL NOT AND SWAP1 DUP4 ISZERO ISZERO MUL OR SWAP1 SSTORE POP PUSH1 0x64 PUSH1 0x3 PUSH1 0x0 CALLER PUSH20 0xFFFFFFFFFFFFFFFFFFFFFFFFFFFFFFFFFFFFFFFF AND PUSH20 0xFFFFFFFFFFFFFFFFFFFFFFFFFFFFFFFFFFFFFFFF AND DUP2 MSTORE PUSH1 0x20 ADD SWAP1 DUP2 MSTORE PUSH1 0x20 ADD PUSH1 0x0 KECCAK256 PUSH1 0x0 DUP3 DUP3 SLOAD PUSH2 0x2F0 SWAP2 SWAP1 PUSH2 0x543 JUMP JUMPDEST SWAP3 POP POP DUP2 SWAP1 SSTORE POP CALLER PUSH20 0xFFFFFFFFFFFFFFFFFFFFFFFFFFFFFFFFFFFFFFFF AND PUSH32 0x24E53C9B6F7A01C723FA01359E44B47E62AB501027DBB092D38E3669D6B01D08 PUSH1 0x40 MLOAD PUSH1 0x40 MLOAD DUP1 SWAP2 SUB SWAP1 LOG2 JUMP JUMPDEST PUSH1 0x0 DUP1 SLOAD SWAP1 PUSH2 0x100 EXP SWAP1 DIV PUSH20 0xFFFFFFFFFFFFFFFFFFFFFFFFFFFFFFFFFFFFFFFF AND DUP2 JUMP JUMPDEST PUSH1 0x0 DUP2 SWAP1 POP SWAP2 SWAP1 POP JUMP JUMPDEST PUSH2 0x373 DUP2 PUSH2 0x360 JUMP JUMPDEST DUP3 MSTORE POP POP JUMP JUMPDEST PUSH1 0x0 PUSH1 0x60 DUP3 ADD SWAP1 POP PUSH2 0x38E PUSH1 0x0 DUP4 ADD DUP7 PUSH2 0x36A JUMP JUMPDEST PUSH2 0x39B PUSH1 0x20 DUP4 ADD DUP6 PUSH2 0x36A JUMP JUMPDEST PUSH2 0x3A8 PUSH1 0x40 DUP4 ADD DUP5 PUSH2 0x36A JUMP JUMPDEST SWAP5 SWAP4 POP POP POP POP JUMP JUMPDEST PUSH1 0x0 DUP1 REVERT JUMPDEST PUSH1 0x0 PUSH20 0xFFFFFFFFFFFFFFFFFFFFFFFFFFFFFFFFFFFFFFFF DUP3 AND SWAP1 POP SWAP2 SWAP1 POP JUMP JUMPDEST PUSH1 0x0 PUSH2 0x3E0 DUP3 PUSH2 0x3B5 JUMP JUMPDEST SWAP1 POP SWAP2 SWAP1 POP JUMP JUMPDEST PUSH2 0x3F0 DUP2 PUSH2 0x3D5 JUMP JUMPDEST DUP2 EQ PUSH2 0x3FB JUMPI PUSH1 0x0 DUP1 REVERT JUMPDEST POP JUMP JUMPDEST PUSH1 0x0 DUP2 CALLDATALOAD SWAP1 POP PUSH2 0x40D DUP2 PUSH2 0x3E7 JUMP JUMPDEST SWAP3 SWAP2 POP POP JUMP JUMPDEST PUSH1 0x0 PUSH1 0x20 DUP3 DUP5 SUB SLT ISZERO PUSH2 0x429 JUMPI PUSH2 0x428 PUSH2 0x3B0 JUMP JUMPDEST JUMPDEST PUSH1 0x0 PUSH2 0x437 DUP5 DUP3 DUP6 ADD PUSH2 0x3FE JUMP JUMPDEST SWAP2 POP POP SWAP3 SWAP2 POP POP JUMP JUMPDEST PUSH1 0x0 DUP2 ISZERO ISZERO SWAP1 POP SWAP2 SWAP1 POP JUMP JUMPDEST PUSH2 0x455 DUP2 PUSH2 0x440 JUMP JUMPDEST DUP3 MSTORE POP POP JUMP JUMPDEST PUSH1 0x0 PUSH1 0x20 DUP3 ADD SWAP1 POP PUSH2 0x470 PUSH1 0x0 DUP4 ADD DUP5 PUSH2 0x44C JUMP JUMPDEST SWAP3 SWAP2 POP POP JUMP JUMPDEST PUSH1 0x0 PUSH1 0x20 DUP3 ADD SWAP1 POP PUSH2 0x48B PUSH1 0x0 DUP4 ADD DUP5 PUSH2 0x36A JUMP JUMPDEST SWAP3 SWAP2 POP POP JUMP JUMPDEST PUSH2 0x49A DUP2 PUSH2 0x360 JUMP JUMPDEST DUP2 EQ PUSH2 0x4A5 JUMPI PUSH1 0x0 DUP1 REVERT JUMPDEST POP JUMP JUMPDEST PUSH1 0x0 DUP2 CALLDATALOAD SWAP1 POP PUSH2 0x4B7 DUP2 PUSH2 0x491 JUMP JUMPDEST SWAP3 SWAP2 POP POP JUMP JUMPDEST PUSH1 0x0 PUSH1 0x20 DUP3 DUP5 SUB SLT ISZERO PUSH2 0x4D3 JUMPI PUSH2 0x4D2 PUSH2 0x3B0 JUMP JUMPDEST JUMPDEST PUSH1 0x0 PUSH2 0x4E1 DUP5 DUP3 DUP6 ADD PUSH2 0x4A8 JUMP JUMPDEST SWAP2 POP POP SWAP3 SWAP2 POP POP JUMP JUMPDEST PUSH2 0x4F3 DUP2 PUSH2 0x3D5 JUMP JUMPDEST DUP3 MSTORE POP POP JUMP JUMPDEST PUSH1 0x0 PUSH1 0x20 DUP3 ADD SWAP1 POP PUSH2 0x50E PUSH1 0x0 DUP4 ADD DUP5 PUSH2 0x4EA JUMP JUMPDEST SWAP3 SWAP2 POP POP JUMP JUMPDEST PUSH32 0x4E487B7100000000000000000000000000000000000000000000000000000000 PUSH1 0x0 MSTORE PUSH1 0x11 PUSH1 0x4 MSTORE PUSH1 0x24 PUSH1 0x0 REVERT JUMPDEST PUSH1 0x0 PUSH2 0x54E DUP3 PUSH2 0x360 JUMP JUMPDEST SWAP2 POP PUSH2 0x559 DUP4 PUSH2 0x360 JUMP JUMPDEST SWAP3 POP DUP3 DUP3 ADD SWAP1 POP DUP1 DUP3 GT ISZERO PUSH2 0x571 JUMPI PUSH2 0x570 PUSH2 0x514 JUMP JUMPDEST JUMPDEST SWAP3 SWAP2 POP POP JUMP INVALID LOG2 PUSH5 0x6970667358 0x22 SLT KECCAK256 SDIV 0xE9 SWAP16 KECCAK256 0x4C DUP11 0xEA 0x24 0xD0 0x28 GASPRICE INVALID 0x28 PUSH11 0xF77DE2F3E4F960E9A9B1E1 0xB4 SWAP4 EXTCODECOPY 0xC7 PUSH5 0xE02864736F PUSH13 0x63430008120033000000000000 "
				},
				"gasEstimates": {
					"creation": {
						"codeDepositCost": "290600",
						"executionCost": "24597",
						"totalCost": "315197"
					},
					"external": {
						"balances(address)": "2814",
						"contractAddress()": "2577",
						"getBalance()": "2571",
						"getBlockInfo()": "infinite",
						"hasVoted(address)": "2868",
						"userAddresses(uint256)": "4978",
						"vote()": "infinite"
					}
				},
				"methodIdentifiers": {
					"balances(address)": "27e235e3",
					"contractAddress()": "f6b4dfb4",
					"getBalance()": "12065fe0",
					"getBlockInfo()": "00819439",
					"hasVoted(address)": "09eef43e",
					"userAddresses(uint256)": "502c9bd5",
					"vote()": "632a9a52"
				}
			},
			"storageLayout": {
				"storage": [
					{
						"astId": 3,
						"contract": "main.sol:Exchange",
						"label": "contractAddress",
						"offset": 0,
						"slot": "0",
						"type": "t_address"
					},
					{
						"astId": 6,
						"contract": "main.sol:Exchange",
						"label": "userAddresses",
						"offset": 0,
						"slot": "1",
						"type": "t_array(t_address)dyn_storage"
					},
					{
						"astId": 10,
						"contract": "main.sol:Exchange",
						"label": "hasVoted",
						"offset": 0,
						"slot": "2",
						"type": "t_mapping(t_address,t_bool)"
					},
					{
						"astId": 14,
						"contract": "main.sol:Exchange",
						"label": "balances",
						"offset": 0,
						"slot": "3",
						"type": "t_mapping(t_address,t_uint256)"
					}
				],
				"types": {
					"t_address": {
						"encoding": "inplace",
						"label": "address",
						"numberOfBytes": "20"
					},
					"t_array(t_address)dyn_storage": {
						"base": "t_address",
						"encoding": "dynamic_array",
						"label": "address[]",
						"numberOfBytes": "32"
					},
					"t_bool": {
						"encoding": "inplace",
						"label": "bool",
						"numberOfBytes": "1"
					},
					"t_mapping(t_address,t_bool)": {
						"encoding": "mapping",
						"key": "t_address",
						"label": "mapping(address => bool)",
						"numberOfBytes": "32",
						"value": "t_bool"
					},
					"t_mapping(t_address,t_uint256)": {
						"encoding": "mapping",
						"key": "t_address",
						"label": "mapping(address => uint256)",
						"numberOfBytes": "32",
						"value": "t_uint256"
					},
					"t_uint256": {
						"encoding": "inplace",
						"label": "uint256",
						"numberOfBytes": "32"
					}
				}
			},
			"userdoc": {
				"kind": "user",
				"methods": {},
				"version": 1
			}
		}
	}
}